S01400006D6F746F722D6D65676176322E7372656370
S11300000C9434000C9470040C9451000C94510022
S11300100C9451000C9451000C9451000C94510018
S11300200C9451000C9451000C9451000C94510008
S11300300C9451000C9440030C9451000C94510006
S11300400C9451000C94CE040C9496010C9457011A
S11300500C9451000C9451000C9451000C945100D8
S11300600C9451000C94510011241FBECFEFD8E022
S1130070DEBFCDBF11E0A0E0B1E0E4E2FEE002C0EB
S113008005900D92A036B107D9F721E0A0E6B1E0C2
S113009001C01D92A03CB207E1F70E9498040C94A1
S11300A010070C940000E2EAF1E0928D9931E8F730
S11300B0F894A2EAB1E05996EC91599791E09E0F19
S11300C059969C935997F0E0EE55FE4F80835A96CB
S11300D08C915A978F5F5A968C935A9759968C9114
S11300E0893111F41092BB01E1ECF0E0808180626F
S11300F0808378940895CF93DF93EC012196FC01DB
S11301008081882329F00E94530089918111FBCFBB
S1130110DF91CF9108950F931F93CF93DF93EC0159
S11301209C01329522952F7023273F702327A7E443
S1130130B3E00E94F6068C0116950795169507956F
S11301401695079580E3800F0E94530020E137E263
S1130150029FC001039F900D129F900D1124C81B94
S1130160D90B9E0136952795369527953695279573
S1130170A5ECB0E20E94F6068C01129502950F7070
S113018001271F70012780E3800F0E94530028EE8F
S113019033E0029FC001039F900D129F900D112424
S11301A0C81BD90B9E013695279536952795ABE745
S11301B0B4E10E94F6068C011695079580E3800F42
S11301C00E94530024E6209FC001219F900D11241A
S11301D0C81BD90B9E01ADECBCEC0E94F6068C0149
S11301E016950795169507951695079580E3800F44
S11301F00E945300C801880F991F000F111F000FA0
S1130200111F000F111F080F191FCE01801B910B26
S1130210805D0E945300DF91CF911F910F9108954B
S11302200F931F931092C00028EB2093C1008C0100
S113023020E030E080E090E0DC01801B910BA20B19
S1130240B30B880F991FAA1FBB1F880F991FAA1FE2
S1130250BB1F880F991FAA1FBB1FBC01CD01735D73
S11302608E4C9E4F000F111F221F331F000F111FB2
S1130270221F331FA9019801220F331F441F551F4A
S1130280220F331F441F551F0E94D406BB27A52FDE
S1130290942F832F8093C5002093C400E7E8F1E0F6
S11302A0128E118E1092BC011F910F9108951F920E
S11302B00F920FB60F9211248F939F93AF93BF9316
S11302C0EF93FF93A2EAB1E05996EC9159975A96AD
S11302D08C915A97E81B59969C9159975A968C91F0
S11302E0981708F4E75EF0E0A2EAB1E0EE55FE4F9D
S11302F080818093C6005A968C915A9781505A9661
S11303008C935A975A968C91811105C0E1ECF0E0D8
S113031080818F7D8083FF91EF91BF91AF919F91F9
S11303208F910F900FBE0F901F9018951F920F92F0
S11303300FB60F9211248F939F93AF93BF93EF93B4
S1130340FF939091C6008091A1018931C8F4A7E878
S1130350B1E05996EC91599781E08E0F59968C93A0
S11303605997F0E0E957FE4F908359968C91893163
S113037010F01092A001E7E8F1E0828D8F5F828F88
S1130380FF91EF91BF91AF919F918F910F900FBE0D
S11303900F901F90189587B18C6387B9569A82E0A5
S11303A08093690081E08CBB8DBB10928500109214
S11303B0840083E884BD83E085BD089510926101C3
S11303C010926001109285001092840081E086BB37
S11303D080936F0093E0909381008093800108954F
S11303E0F89410926F0016BA109281001092850052
S11303F010928400109278011092790110927A017F
S113040010927B011092810110928201109283015B
S11304101092840110926401109265011092660199
S113042010926701089588E388B90E94F001089545
S11304300F931F93CF93DF93E8E6F1E014821582C4
S1130440168217821082118212821382109278010E
S11304501092790110927A0110927B01109281011D
S1130460109282011092830110928401109264010F
S11304701092650110926601109267010E94C004F7
S1130480811105C08CE191E00E947B00F7CF82E0EE
S11304900E94C8040E94C304282F30E08901002E62
S11304A0012F000C001F110B000C001F111FD02F77
S11304B0359527953595279535952795277020935C
S11304C08501C82FC770809186018823C9F089E20D
S11304D091E00E947B00C80199270E948B008DE265
S11304E091E00E947B008091850190E00E948B0046
S11304F081E391E00E947B008C2F90E00E948B00AE
S113050090918501913091F482E08093850184E893
S113051090E0A0E0B0E08093740190937501A09303
S11305207601B0937701D33009F514C082E4989F23
S1130530A0011124052E000C660B770B4093740167
S1130540509375016093760170937701D33011F065
S113055091110CC00E94130281E00E94C80481E042
S113056090E0909363018093620185C0D13019F4C7
S113057080E388B904C0D23011F488E288B90091CC
S1130580850182E2089F80011124B801110F880BB4
S1130590990B0E94A20560937C0170937D01809366
S11305A07E0190937F0107BD0E94DE01789481E073
S11305B080938001D0E0CC0FDD1FC050DF4F20912D
S11305C06401309165014091660150916701609129
S11305D074017091750180917601909177010E9468
S11305E0C406009178011091790120917A0130912B
S11305F07B01AB01BC01401B510B620B730B80915F
S1130600810190918201A0918301B0918401480FEE
S1130610591F6A1F7B1F88819981A0E0B0E04817A9
S113062059076A077B0724F40E94C004882339F21F
S113063086E391E00E947B008091600190916101CA
S11306400E948B0083E491E00E947B0087B590E0D8
S11306500E948B000E94130281E00E94C8048091D2
S11306608601882341F08AE491E00E947B008CE5B6
S113067091E00E947B00DF91CF911F910F9108952B
S11306801F920F920FB60F9211244F925F926F92A6
S11306907F928F929F92AF92BF92CF92DF92EF920E
S11306A0FF922F933F934F935F936F937F938F9317
S11306B09F93AF93BF93CF93DF93EF93FF931092E6
S11306C08500109284008091810190918201A09113
S11306D08301B09184018093700190937101A09380
S11306E07201B0937301C0907401D0907501E090D1
S11306F07601F0907701C81AD90AEA0AFB0A8090B9
S1130700780190907901A0907A01B0907B018C0CD3
S11307109D1CAE1CBF1C8092780190927901A0921E
S11307207A01B0927B01C8E6D1E0CC82DD82EE8210
S1130730FF82C701B6010E94A205209118013091E1
S1130740190140911A0150911B010E9457062B0177
S11307503C01C501B4010E94A2052091140130910D
S1130760150140911601509117010E9457069B01F3
S1130770AC01C301B2010E9400054B015C018881F8
S11307809981AA81BB81A7019601281B390B4A0BC9
S11307905B0BCA01B9010E94A2052091100130919E
S11307A0110140911201509113010E9457069B01BF
S11307B0AC01C501B4010E94FF0420917C01309179
S11307C07D0140917E0150917F010E9400056B01E3
S11307D07C0120E030E04FE753E40E945206882376
S11307E06CF080E090E0AFE7B3E480937C019093F9
S11307F07D01A0937E01B0937F011EC020E030E014
S1130800A901C701B6010E946C0518164CF4C092E8
S11308107C01D0927D01E0927E01F0927F010CC0B8
S113082080E090E0A0E8BFE380937C0190937D0199
S1130830A0937E01B0937F0160917C0170917D0152
S113084080917E0190917F010E94710567BD109295
S1130850810110928201109283011092840180918F
S1130860640190916501A0916601B09167010196C0
S1130870A11DB11D8093640190936501A09366014D
S1130880B093670181E080938001E8E6F1E0848120
S11308909581A681B78180839183A283B3830E94CB
S11308A0DE01FF91EF91DF91CF91BF91AF919F91C5
S11308B08F917F916F915F914F913F912F91FF9015
S11308C0EF90DF90CF90BF90AF909F908F907F90EC
S11308D06F905F904F900F900FBE0F901F901895E0
S11308E01F920F920FB60F9211248F939F93AF9381
S11308F0BF938091810190918201A0918301B09175
S113090084010196A11DB11D809381019093820100
S1130910A0938301B093840181E08CBB8DBBBF9114
S1130920AF919F918F910F900FBE0F901F901895CC
S113093082E08AB90E94B6040E94CB0180E096E965
S11309400E9410012FE38DE093E0215080409040FD
S1130950E1F700C0000081E00E94C80485E591E051
S11309600E947B0078940E941802FDCF80E184B934
S113097080EC8CBD1092BE011092BF017894089552
S11309808091BE0108951092BE018091BF01089527
S1130990F8948093BD018EBD789408951F920F92B0
S11309A00FB60F9211242F933F934F935F936F933E
S11309B07F938F939F93AF93BF93EF93FF938EB5E2
S11309C08093BF01882339F081E08093BE0182E0E7
S11309D00E94C80403C08091BD018EBDFF91EF91B8
S11309E0BF91AF919F918F917F916F915F914F9143
S11309F03F912F910F900FBE0F901F901895505854
S1130A00BB27AA270E9417050C9418060E940A0601
S1130A1038F00E94110620F039F49F3F19F426F4AF
S1130A200C9407060EF4E095E7FB0C940106E92FFD
S1130A300E94290658F3BA176207730784079507BB
S1130A4020F079F4A6F50C944B060EF4E0950B2EE9
S1130A50BA2FA02D0B01B90190010C01CA01A0010C
S1130A601124FF27591B99F0593F50F4503E68F167
S1130A701A16F040A22F232F342F4427585FF3CFA8
S1130A80469537952795A795F0405395C9F77EF479
S1130A901F16BA0B620B730B840BBAF09150A1F0C2
S1130AA0FF0FBB1F661F771F881FC2F70EC0BA0F48
S1130AB0621F731F841F48F4879577956795B795D0
S1130AC0F7959E3F08F0B0CF9395880F08F09927CB
S1130AD0EE0F9795879508950E94DD0508F481E04F
S1130AE008950E94310688F09F5798F0B92F9927EE
S1130AF0B751B0F0E1F0660F771F881F991F1AF005
S1130B00BA95C9F714C0B13091F00E944B06B1E018
S1130B1008950C944B06672F782F8827B85F39F017
S1130B20B93FCCF3869577956795B395D9F73EF49D
S1130B3090958095709561957F4F8F4F9F4F089545
S1130B40E89409C097FB3EF4909580957095619563
S1130B507F4F8F4F9F4F9923A9F0F92F96E9BB2719
S1130B609395F695879577956795B795F111F8CF95
S1130B70FAF4BB0F11F460FF1BC06F5F7F4F8F4F00
S1130B809F4F16C0882311F096E911C0772321F0F6
S1130B909EE8872F762F05C0662371F096E8862F8E
S1130BA070E060E02AF09A95660F771F881FDAF7E5
S1130BB0880F9695879597F90895990F0008550F12
S1130BC0AA0BE0E8FEEF16161706E807F907C0F0CF
S1130BD012161306E407F50798F0621B730B840BD7
S1130BE0950B39F40A2661F0232B242B252B21F4B1
S1130BF008950A2609F4A140A6958FEF811D811D51
S1130C00089597F99F6780E870E060E008959FEF8A
S1130C1080EC089500240A9416161706180609068F
S1130C20089500240A94121613061406050608955E
S1130C30092E0394000C11F4882352F0BB0F40F4E6
S1130C40BF2B11F460FF04C06F5F7F4F8F4F9F4F26
S1130C50089557FD9058440F551F59F05F3F71F0A8
S1130C604795880F97FB991F61F09F3F79F087950F
S1130C700895121613061406551FF2CF4695F1DF98
S1130C8008C0161617061806991FF1CF8695710528
S1130C90610508940895E894BB2766277727CB015C
S1130CA097F908950E94DD0508F48FEF08950E94D6
S1130CB06A060C9418060E940A0638F00E9411066F
S1130CC020F0952311F00C9401060C9407061124CE
S1130CD00C944C060E94290670F3959FC1F3950F5E
S1130CE050E0551F629FF001729FBB27F00DB11DAC
S1130CF0639FAA27F00DB11DAA1F649F6627B00D3C
S1130D00A11D661F829F2227B00DA11D621F739F24
S1130D10B00DA11D621F839FA00D611D221F749F32
S1130D203327A00D611D231F849F600D211D822F79
S1130D30762F6A2F11249F5750409AF0F1F08823A0
S1130D404AF0EE0FFF1FBB1F661F771F881F9150CD
S1130D505040A9F79E3F510580F00C9401060C9475
S1130D604C065F3FE4F3983ED4F3869577956795F8
S1130D70B795F795E7959F5FC1F7FE2B880F911DF7
S1130D809695879597F90895DB018F939F930E9419
S1130D900507BF91AF91A29F800D911DA39F900D58
S1130DA0B29F900D11240895A1E21A2EAA1BBB1B19
S1130DB0FD010DC0AA1FBB1FEE1FFF1FA217B30723
S1130DC0E407F50720F0A21BB30BE40BF50B661F39
S1130DD0771F881F991F1A9469F7609570958095FD
S1130DE090959B01AC01BD01CF010895A29FB00174
S1130DF0B39FC001A39F700D811D1124911DB29F4B
S1130E00700D811D1124911D08950E94F606A59F61
S1130E10900DB49F900DA49F800D911D11240895F1
S1070E20F894FFCF70
S1130E240000FC0B3818D007CE04B80B00000000F7
S1130E34CDCCCC3D0AD7A33C0AD7A33D57616974F2
S1130E44696E672E2E2E0A0D0066623A0073703A9C
S1130E54006469733A0066696E6973682D4F766538
S1130E64723A004F435230413A002046696E697326
S1130E74686564210077616B657570210A0D000053
S9030000FC
