S01400006D6F746F722D6D65676176322E7372656370
S11300000C9434000C9415040C9451000C9451007D
S11300100C9451000C9451000C9451000C94510018
S11300200C9451000C9451000C9451000C94510008
S11300300C9451000C9406040C9451000C9451003F
S11300400C9451000C9473040C9412010C94E00071
S11300500C9451000C9451000C9451000C945100D8
S11300600C9451000C94510011241FBECFEFD8E022
S1130070DEBFCDBF11E0A0E0B1E0E6EAFDE002C0E2
S113008005900D92A835B107D9F721E0A8E5B1E0B4
S113009001C01D92A13CB207E1F70E943D040C94FB
S11300A0D1060C9400009091BD019931E0F7F894C9
S11300B0E091BC0191E09E0F9093BC01F0E0ED55FE
S11300C0FE4F80838091BD018F5F8093BD0180913D
S11300D0BC01893111F41092BC018091C10080628D
S11300E08093C10078940895CF93DF93EC018991B4
S11300F0882319F00E945300FACFDF91CF9108951D
S1130100CF93DF9360E177E20E947906EC0180E30C
S1130110860F0E945300CE0168EE73E00E947906B8
S1130120EC0180E3860F0E945300CE0164E670E088
S11301300E947906EC0180E3860F0E945300CE01F1
S11301406AE070E00E947906C82F80E3860F0E945F
S1130150530080E38C0FDF91CF910C945300CF9226
S1130160DF92EF92FF921092C00028EB2093C1001F
S11301706C01E12CF12CA8EFBFEFA70196010E94BE
S1130180BD06735D8E4C9E4FE4E0220F331F441F67
S1130190551FEA95D1F70E948D06BB27A52F942FF2
S11301A0832F8093C5002093C400E8E8F1E0128E09
S11301B0118E1092BD01FF90EF90DF90CF900895C3
S11301C01F920F920FB60F9211248F939F93EF9368
S11301D0FF93E091BC018091BD01E81B9091BC01AB
S11301E08091BD01981708F4E75EF0E0ED55FE4FED
S11301F080818093C6008091BD0181508093BD01B0
S11302008091BD01811105C08091C1008F7D8093D3
S1130210C100FF91EF919F918F910F900FBE0F90AE
S11302201F9018951F920F920FB60F9211248F935F
S11302309F93EF93FF938091C6009091A20199310F
S1130240A8F4E091A10191E09E0F9093A101F0E048
S1130250E857FE4F80838091A101893110F01092FC
S1130260A1018091A2018F5F8093A201FF91EF9180
S11302709F918F910F900FBE0F901F90189587B18B
S11302808C6387B9569A82E08093690081E08CBBC5
S11302908DBB109285001092840083E884BD83E0B6
S11302A085BD089510925A0110925901109285004B
S11302B01092840081E086BB80936F0092E090935B
S11302C08100809379010895F89410926F0016BA12
S11302D01092810010928500109284001092710196
S11302E010927201109273011092740110927A01AB
S11302F010927B0110927C0110927D0110925D019D
S113030010925E0110925F0110926001089588E3DB
S113031088B90C9464014F925F926F927F928F928E
S11303209F92AF92BF92CF92DF92EF92FF921F9370
S1130330CF93DF93109258011092650110926601D9
S1130340109267011092680110926101109262018B
S11303501092630110926401109271011092720163
S1130360109273011092740110927A0110927B0121
S113037010927C0110927D0110925D0110925E0139
S113038010925F011092600184E191E00E94740078
S113039020E030E048EC52E46091840170918501E2
S11303A080918601909187010E94FC050E941605A8
S11303B0CB010E94800084E591E00E9474000E94B9
S11303C065048823E1F382E00E946D040E946804BE
S11303D0282F30E0790196E0F594E7949A95E1F7B7
S11303E0DE2D43E0359527954A95E1F72770209354
S11303F07E01C82FC77080917F018823C1F089E1F5
S113040091E00E947400C7010E9480008DE191E098
S11304100E94740080917E0190E00E94800081E23D
S113042091E00E9474008C2F90E00E9480008091E3
S11304307E01813019F483E080937E0180917E01F6
S113044028E0829FC0011124092E000CAA0BBB0BCB
S113045080936D0190936E01A0936F01B09370012E
S113046086E291E00E94740080916D0190916E018A
S11304700E94800084E591E00E947400D33021F052
S113048080917E0181110CC00E94870181E00E944D
S11304906D0481E090E090935C0180935B01A6C1C0
S11304A0D13011F488E203C0D23011F480E388B96A
S11304B0E0907E013EE1E39E70011124B701FF0C40
S11304C0880B990B0E944705609375017093760120
S11304D08093770190937801E7BC0E94520178944D
S11304E081E080937901D0E0CC0FDD1FC050DF4F55
S11304F011E020915D0130915E0140915F015091C6
S1130500600160916D0170916E0180916F01909115
S113051070010E946906C0907101D0907201E09050
S11305207301F0907401AB01BC014C195D096E09B3
S11305307F0980917A0190917B01A0917C01B09117
S11305407D01480F591F6A1F7B1F88819981A0E094
S1130550B0E0481759076A077B0724F40E94650432
S1130560882399F189E391E00E94740080915901F4
S113057090915A010E94800086E491E00E947400E8
S113058087B590E00E9480000E94870181E00E946C
S11305906D0480917F01882309F428C18EE291E0E3
S11305A00E94740084E591E0DF91CF911F91FF9048
S11305B0EF90DF90CF90BF90AF909F908F907F90FF
S11305C06F905F904F900C94740080915801882331
S11305D009F48FCF109285001092840080917A01E3
S11305E090917B01A0917C01B0917D018093690180
S11305F090936A01A0936B01B0936C01C0906D015C
S1130600D0906E01E0906F01F0907001C81AD90A81
S1130610EA0AFB0A8090710190907201A090730124
S1130620B09074018C0C9D1CAE1CBF1C8092710197
S113063090927201A0927301B0927401C09265010C
S1130640D0926601E0926701F0926801C701B60199
S11306500E9447052091100130911101409112012F
S1130660509113010E94FC052B013C01C501B4010A
S11306700E944705209184013091850140918601B3
S1130680509187010E94FC059B01AC01C301B2019A
S11306900E94A5044B015C0180916101909162016B
S11306A0A0916301B0916401A7019601281B390B45
S11306B04A0B5B0BCA01B9010E94470520918001D6
S11306C03091810140918201509183010E94FC0587
S11306D09B01AC01C501B4010E94A40420917501E1
S11306E03091760140917701509178010E94A504E0
S11306F06B017C0120E030E04FE753E40E94F705F2
S113070087FD05C080E090E0AFE7B3E416C020E0C9
S113071030E0A901C701B6010E94110518164CF476
S1130720C0927501D0927601E0927701F09278013F
S11307300CC080E090E0A0E8BFE380937501909343
S11307407601A0937701B09378016091750170915F
S1130750760180917701909178010E94160567BD1A
S113076010927A0110927B0110927C0110927D010B
S113077080915D0190915E01A0915F01B091600153
S11307800196A11DB11D80935D0190935E01A0931C
S11307905F01B0936001109379018091650190919C
S11307A06601A0916701B091680180936101909303
S11307B06201A0936301B09364010E9452011092FC
S11307C0580180916D0190916E01209169013091E1
S11307D06A01821B930B0E9480008CE291E00E94CC
S11307E0740084E591E00E94740083CEDF91CF9180
S11307F01F91FF90EF90DF90CF90BF90AF909F90AC
S11308008F907F906F905F904F9008951F920F92FA
S11308100FB60F9211248F9381E0809358018F912A
S11308200F900FBE0F901F9018951F920F920FB646
S11308300F9211248F939F93AF93BF9380917A016A
S113084090917B01A0917C01B0917D010196A11D45
S1130850B11D80937A0190937B01A0937C01B093A6
S11308607D0181E08CBB8DBBBF91AF919F918F9136
S11308700F900FBE0F901F90189582E08AB90E94C6
S11308805B040E943F0180E096E90E94AF002FE3E1
S11308908DE093E0215080409040E1F700C00000DB
S11308A081E00E946D048DE491E00E9474007894CC
S11308B00E948B01FDCF80E184B980EC8CBD109245
S11308C0BF011092C001789408958091BF010895EA
S11308D01092BF018091C0010895F8948093BE01E5
S11308E08EBD789408951F920F920FB60F92112423
S11308F02F933F934F935F936F937F938F939F9324
S1130900AF93BF93EF93FF938EB58093C001882379
S113091039F081E08093BF0182E00E946D0403C03E
S11309208091BE018EBDFF91EF91BF91AF919F91D8
S11309308F917F916F915F914F913F912F910F9084
S11309400FBE0F901F9018955058BB27AA270E94DE
S1130950BC040C94BD050E94AF0538F00E94B60596
S113096020F039F49F3F19F426F40C94AC050EF4EE
S1130970E095E7FB0C94A605E92F0E94CE0558F3F9
S1130980BA17620773078407950720F079F4A6F570
S11309900C94F0050EF4E0950B2EBA2FA02D0B014C
S11309A0B90190010C01CA01A0011124FF27591BB0
S11309B099F0593F50F4503E68F11A16F040A22FB6
S11309C0232F342F4427585FF3CF46953795279527
S11309D0A795F0405395C9F77EF41F16BA0B620B26
S11309E0730B840BBAF09150A1F0FF0FBB1F661F6D
S11309F0771F881FC2F70EC0BA0F621F731F841FB0
S1130A0048F4879577956795B795F7959E3F08F0D5
S1130A10B0CF9395880F08F09927EE0F9795879597
S1130A2008950E94820508F481E008950E94D60585
S1130A3088F09F5798F0B92F9927B751B0F0E1F09B
S1130A40660F771F881F991F1AF0BA95C9F714C04B
S1130A50B13091F00E94F005B1E008950C94F005D6
S1130A60672F782F8827B85F39F0B93FCCF3869584
S1130A7077956795B395D9F73EF4909580957095E1
S1130A8061957F4F8F4F9F4F0895E89409C097FB5E
S1130A903EF490958095709561957F4F8F4F9F4F51
S1130AA09923A9F0F92F96E9BB279395F695879595
S1130AB077956795B795F111F8CFFAF4BB0F11F458
S1130AC060FF1BC06F5F7F4F8F4F9F4F16C08823FF
S1130AD011F096E911C0772321F09EE8872F762F35
S1130AE005C0662371F096E8862F70E060E02AF076
S1130AF09A95660F771F881FDAF7880F9695879562
S1130B0097F90895990F0008550FAA0BE0E8FEEF36
S1130B1016161706E807F907C0F012161306E407BD
S1130B20F50798F0621B730B840B950B39F40A26B6
S1130B3061F0232B242B252B21F408950A2609F494
S1130B40A140A6958FEF811D811D089597F99F6798
S1130B5080E870E060E008959FEF80EC0895002441
S1130B600A941616170618060906089500240A940E
S1130B7012161306140605060895092E0394000C94
S1130B8011F4882352F0BB0F40F4BF2B11F460FF23
S1130B9004C06F5F7F4F8F4F9F4F089557FD90584C
S1130BA0440F551F59F05F3F71F04795880F97FB2D
S1130BB0991F61F09F3F79F08795089512161306E7
S1130BC01406551FF2CF4695F1DF08C01616170616
S1130BD01806991FF1CF869571056105089408954B
S1130BE0E894BB2766277727CB0197F908950E94DD
S1130BF0820508F48FEF08950E940F060C94BD053A
S1130C000E94AF0538F00E94B60520F0952311F03C
S1130C100C94A6050C94AC0511240C94F1050E94C7
S1130C20CE0570F3959FC1F3950F50E0551F629F59
S1130C30F001729FBB27F00DB11D639FAA27F00D31
S1130C40B11DAA1F649F6627B00DA11D661F829F58
S1130C502227B00DA11D621F739FB00DA11D621F3D
S1130C60839FA00D611D221F749F3327A00D611D5A
S1130C70231F849F600D211D822F762F6A2F11243C
S1130C809F5750409AF0F1F088234AF0EE0FFF1F6F
S1130C90BB1F661F771F881F91505040A9F79E3FC6
S1130CA0510580F00C94A6050C94F1055F3FE4F324
S1130CB0983ED4F3869577956795B795F795E7951C
S1130CC09F5FC1F7FE2B880F911D9695879597F925
S1130CD00895DB018F939F930E94AF06BF91AF915C
S1130CE0A29F800D911DA39F900DB29F900D112482
S1130CF00895AA1BBB1B51E107C0AA1FBB1FA6175F
S1130D00B70710F0A61BB70B881F991F5A95A9F7B0
S1130D1080959095BC01CD010895A1E21A2EAA1BDD
S1130D20BB1BFD010DC0AA1FBB1FEE1FFF1FA21797
S1130D30B307E407F50720F0A21BB30BE40BF50B94
S1130D40661F771F881F991F1A9469F7609570951D
S1130D50809590959B01AC01BD01CF0108950E943F
S1130D60C206A59F900DB49F900DA49F800D911D68
S1130D7011240895B7FF0C94AF060E94AF06821B9E
S1130D80930B0895A29FB001B39FC001A39F700D60
S1130D90811D1124911DB29F700D811D1124911D7F
S1090DA00895F894FFCF52
S1130DA60000C6143E12DC05AC03FC08000000007B
S1130DB60000A0400A0D733A0066623A0073703A66
S1130DC6006469733A00626573743A002C00204625
S1130DD6696E6973686564210066696E6973682D56
S1130DE64F7665723A004F435230413A0077616B51
S10B0DF6657570210A0D00006F
S9030000FC
