S01400006D6F746F722D6D65676176322E7372656370
S11300000C9434000C94E0030C9451000C945100B3
S11300100C9451000C9451000C9451000C94510018
S11300200C9451000C9451000C9451000C94510008
S11300300C9451000C94D1030C9451000C94510075
S11300400C9451000C943E040C9412010C94E000A6
S11300500C9451000C9451000C9451000C945100D8
S11300600C9451000C94510011241FBECFEFD8E022
S1130070DEBFCDBF11E0A0E0B1E0ECE3FDE002C0E3
S113008005900D92AA34B107D9F721E0AAE4B1E0B2
S113009001C01D92A33BB207E1F70E9408040C942F
S11300A09C060C9400009091AF019931E0F7F8940C
S11300B0E091AE0191E09E0F9093AE01F0E0EB561B
S11300C0FE4F80838091AF018F5F8093AF01809159
S11300D0AE01893111F41092AE018091C1008062A9
S11300E08093C10078940895CF93DF93EC018991B4
S11300F0882319F00E945300FACFDF91CF9108951D
S1130100CF93DF9360E177E20E944406EC0180E341
S1130110860F0E945300CE0168EE73E00E944406ED
S1130120EC0180E3860F0E945300CE0164E670E088
S11301300E944406EC0180E3860F0E945300CE0126
S11301406AE070E00E944406C82F80E3860F0E9494
S1130150530080E38C0FDF91CF910C945300CF9226
S1130160DF92EF92FF921092C00028EB2093C1001F
S11301706C01E12CF12CA8EFBFEFA70196010E94BE
S11301808806735D8E4C9E4FE4E0220F331F441F9C
S1130190551FEA95D1F70E945806BB27A52F942F27
S11301A0832F8093C5002093C400EAE7F1E0128E08
S11301B0118E1092AF01FF90EF90DF90CF900895D1
S11301C01F920F920FB60F9211248F939F93EF9368
S11301D0FF93E091AE018091AF01E81B9091AE01D5
S11301E08091AF01981708F4E75EF0E0EB56FE4FFC
S11301F080818093C6008091AF0181508093AF01CC
S11302008091AF01811105C08091C1008F7D8093E1
S1130210C100FF91EF919F918F910F900FBE0F90AE
S11302201F9018951F920F920FB60F9211248F935F
S11302309F93EF93FF938091C6009091940199311D
S1130240A8F4E091930191E09E0F90939301F0E064
S1130250E658FE4F808380919301893110F010920B
S11302609301809194018F5F80939401FF91EF91AA
S11302709F918F910F900FBE0F901F90189587B18B
S11302808C6387B9569A82E08093690081E08CBBC5
S11302908DBB109285001092840083E884BD83E0B6
S11302A085BD089510924C0110924B011092850067
S11302B01092840081E086BB80936F0093E090935A
S11302C0810080936B010895F89410926F0016BA20
S11302D010928100109285001092840010926301A4
S11302E010926401109265011092660110926C01E3
S11302F010926D0110926E0110926F0110924F01D5
S1130300109250011092510110925201089588E305
S113031088B90C9464014F925F926F927F928F928E
S11303209F92AF92BF92CF92DF92EF92FF921F9370
S1130330CF93DF9310924A01109257011092580103
S11303401092590110925A011092530110925401C3
S1130350109255011092560110926301109264019B
S1130360109265011092660110926C0110926D0159
S113037010926E0110926F0110924F011092500171
S113038010925101109252010E9430048823E1F32B
S113039082E00E9438040E943304282F30E079015F
S11303A096E0F594E7949A95E1F7DE2D43E03595D0
S11303B027954A95E1F7277020937001C82FC770DD
S11303C0809171018823C1F084E191E00E9474005E
S11303D0C7010E94800088E191E00E94740080912E
S11303E0700190E00E9480008CE191E00E94740012
S11303F08C2F90E00E94800080917001813019F46C
S113040083E0809370012091700137E3239FC00142
S11304101124092E000CAA0BBB0B80935F0190934F
S11304206001A0936101B0936201D33011F02111F6
S11304300CC00E94870181E00E94380481E090E0B2
S113044090934E0180934D019CC1D13011F488E208
S113045003C0D23011F480E388B9E090700142E225
S1130460E49E70011124B701FF0C880B990B0E94C4
S113047012056093670170936801809369019093FA
S11304806A01E7BC0E945201789481E080936B0179
S1130490D0E0CC0FDD1FC050DF4F11E020914F01A1
S11304A030915001409151015091520160915F018E
S11304B07091600180916101909162010E94340603
S11304C0C0906301D0906401E0906501F0906601F2
S11304D0AB01BC014C195D096E097F0980916C0167
S11304E090916D01A0916E01B0916F01480F591F59
S11304F06A1F7B1F88819981A0E0B0E048175907E3
S11305006A077B0724F40E943004882399F18CE263
S113051091E00E94740080914B0190914C010E94E3
S1130520800089E391E00E94740087B590E00E9406
S113053080000E94870181E00E943804809171014B
S1130540882309F41EC181E291E00E94740087E4CB
S113055091E0DF91CF911F91FF90EF90DF90CF90CA
S1130560BF90AF909F908F907F906F905F904F90CF
S11305700C94740080914A01882309F48FCF10925F
S113058085001092840080916C0190916D01A0917E
S11305906E01B0916F0180935B0190935C01A09315
S11305A05D01B0935E01C0905F01D0906001E09066
S11305B06101F0906201C81AD90AEA0AFB0A809024
S11305C0630190906401A0906501B09066018C0C69
S11305D09D1CAE1CBF1C8092630190926401A0928A
S11305E06501B0926601C0925701D0925801E09221
S11305F05901F0925A01C701B6010E9412052091D7
S113060010013091110140911201509113010E9487
S1130610C7052B013C01C501B4010E9412052091BC
S113062076013091770140917801509179010E94CF
S1130630C7059B01AC01C301B2010E9470044B01C8
S11306405C018091530190915401A0915501B091A6
S11306505601A7019601281B390B4A0B5B0BCA01F3
S1130660B9010E94120520917201309173014091E9
S11306707401509175010E94C7059B01AC01C5012D
S1130680B4010E946F042091670130916801409188
S1130690690150916A010E9470046B017C0120E0A1
S11306A030E04FE753E40E94C20587FD05C080E0B7
S11306B090E0AFE7B3E416C020E030E0A901C70141
S11306C0B6010E94DC0418164CF4C0926701D09263
S11306D06801E0926901F0926A010CC080E090E048
S11306E0A0E8BFE38093670190936801A093690138
S11306F0B0936A016091670170916801809169010A
S113070090916A010E94E10467BD10926C011092FD
S11307106D0110926E0110926F0180914F019091C2
S11307205001A0915101B09152010196A11DB11D3A
S113073080934F0190935001A0935101B0935201C3
S113074010936B018091570190915801A091590128
S1130750B0915A018093530190935401A093550191
S1130760B09356010E94520110924A018091630194
S1130770909164010E94800087E491E00E947400DB
S11307808DCEDF91CF911F91FF90EF90DF90CF90AE
S1130790BF90AF909F908F907F906F905F904F909D
S11307A008951F920F920FB60F9211248F9381E038
S11307B080934A018F910F900FBE0F901F90189550
S11307C01F920F920FB60F9211248F939F93AF93A2
S11307D0BF9380916C0190916D01A0916E01B091D5
S11307E06F010196A11DB11D80936C0190936D0161
S11307F0A0936E01B0936F0181E08CBB8DBBBF9160
S1130800AF919F918F910F900FBE0F901F901895ED
S113081082E08AB90E9426040E943F0180E096E9A2
S11308200E94AF002FE38DE093E021508040904080
S1130830E1F700C0000081E00E94380480E491E008
S11308400E94740078940E948B01FDCF80E184B9EA
S113085080EC8CBD1092B1011092B201789408958D
S11308608091B10108951092B1018091B20108956F
S1130870F8948093B0018EBD789408951F920F92DE
S11308800FB60F9211242F933F934F935F936F935F
S11308907F938F939F93AF93BF93EF93FF938EB503
S11308A08093B201882339F081E08093B10182E022
S11308B00E94380403C08091B0018EBDFF91EF9176
S11308C0BF91AF919F918F917F916F915F914F9164
S11308D03F912F910F900FBE0F901F901895505875
S11308E0BB27AA270E9487040C9488050E947A05D6
S11308F038F00E94810520F039F49F3F19F426F462
S11309000C9477050EF4E095E7FB0C947105E92F40
S11309100E94990558F3BA1762077307840795076D
S113092020F079F4A6F50C94BB050EF4E0950B2E9B
S1130930BA2FA02D0B01B90190010C01CA01A0012D
S11309401124FF27591B99F0593F50F4503E68F188
S11309501A16F040A22F232F342F4427585FF3CFC9
S1130960469537952795A795F0405395C9F77EF49A
S11309701F16BA0B620B730B840BBAF09150A1F0E3
S1130980FF0FBB1F661F771F881FC2F70EC0BA0F69
S1130990621F731F841F48F4879577956795B795F1
S11309A0F7959E3F08F0B0CF9395880F08F09927EC
S11309B0EE0F9795879508950E944D0508F481E000
S11309C008950E94A10588F09F5798F0B92F9927A0
S11309D0B751B0F0E1F0660F771F881F991F1AF026
S11309E0BA95C9F714C0B13091F00E94BB05B1E0CB
S11309F008950C94BB05672F782F8827B85F39F0CA
S1130A00B93FCCF3869577956795B395D9F73EF4BE
S1130A1090958095709561957F4F8F4F9F4F089566
S1130A20E89409C097FB3EF4909580957095619584
S1130A307F4F8F4F9F4F9923A9F0F92F96E9BB273A
S1130A409395F695879577956795B795F111F8CFB6
S1130A50FAF4BB0F11F460FF1BC06F5F7F4F8F4F21
S1130A609F4F16C0882311F096E911C0772321F017
S1130A709EE8872F762F05C0662371F096E8862FAF
S1130A8070E060E02AF09A95660F771F881FDAF706
S1130A90880F9695879597F90895990F0008550F33
S1130AA0AA0BE0E8FEEF16161706E807F907C0F0F0
S1130AB012161306E407F50798F0621B730B840BF8
S1130AC0950B39F40A2661F0232B242B252B21F4D2
S1130AD008950A2609F4A140A6958FEF811D811D72
S1130AE0089597F99F6780E870E060E008959FEFAC
S1130AF080EC089500240A941616170618060906B1
S1130B00089500240A94121613061406050608957F
S1130B10092E0394000C11F4882352F0BB0F40F407
S1130B20BF2B11F460FF04C06F5F7F4F8F4F9F4F47
S1130B30089557FD9058440F551F59F05F3F71F0C9
S1130B404795880F97FB991F61F09F3F79F0879530
S1130B500895121613061406551FF2CF4695F1DFB9
S1130B6008C0161617061806991FF1CF8695710549
S1130B70610508940895E894BB2766277727CB017D
S1130B8097F908950E944D0508F48FEF08950E9487
S1130B90DA050C9488050E947A0538F00E948105D4
S1130BA020F0952311F00C9471050C947705112411
S1130BB00C94BC050E94990570F3959FC1F3950FA1
S1130BC050E0551F629FF001729FBB27F00DB11DCD
S1130BD0639FAA27F00DB11DAA1F649F6627B00D5D
S1130BE0A11D661F829F2227B00DA11D621F739F46
S1130BF0B00DA11D621F839FA00D611D221F749F54
S1130C003327A00D611D231F849F600D211D822F9A
S1130C10762F6A2F11249F5750409AF0F1F08823C1
S1130C204AF0EE0FFF1FBB1F661F771F881F9150EE
S1130C305040A9F79E3F510580F00C9471050C9427
S1130C40BC055F3FE4F3983ED4F3869577956795AA
S1130C50B795F795E7959F5FC1F7FE2B880F911D18
S1130C609695879597F90895DB018F939F930E943A
S1130C707A06BF91AF91A29F800D911DA39F900D05
S1130C80B29F900D11240895AA1BBB1B51E107C00C
S1130C90AA1FBB1FA617B70710F0A61BB70B881F08
S1130CA0991F5A95A9F780959095BC01CD01089597
S1130CB0A1E21A2EAA1BBB1BFD010DC0AA1FBB1F5C
S1130CC0EE1FFF1FA217B307E407F50720F0A21BCE
S1130CD0B30BE40BF50B661F771F881F991F1A943B
S1130CE069F760957095809590959B01AC01BD0165
S1130CF0CF0108950E948D06A59F900DB49F900D7D
S1130D00A49F800D911D11240895B7FF0C947A06B9
S1130D100E947A06821B930B0895A29FB001B39F91
S1130D20C001A39F700D811D1124911DB29F700DF0
S10F0D30811D1124911D0895F894FFCF3B
S1130D3C00000E093E12DC05AC03FC0800000000A8
S1130D4CCDCCCC3D66623A0073703A006469733A58
S1130D5C002046696E6973686564210066696E6972
S1130D6C73682D4F7665723A004F435230413A0006
S10D0D7C77616B657570210A0D00A4
S9030000FC
