:100000000C9434000C9443040C9451000C94510053
:100010000C9451000C9451000C9451000C9451001C
:100020000C9451000C9451000C9451000C9451000C
:100030000C9451000C9434040C9451000C94510015
:100040000C9451000C94A1040C9412010C94E00047
:100050000C9451000C9451000C9451000C945100DC
:100060000C9451000C94510011241FBECFEFD8E026
:10007000DEBFCDBF11E0A0E0B1E0E2E0FEE002C0F3
:1000800005900D92AE35B107D9F721E0AEE5B1E0AC
:1000900001C01D92A73CB207E1F70E946B040C94CB
:1000A000FF060C9400009091C3019931E0F7F89499
:1000B000E091C20191E09E0F9093C201F0E0E755FC
:1000C000FE4F80838091C3018F5F8093C301809135
:1000D000C201893111F41092C2018091C100806285
:1000E0008093C10078940895CF93DF93EC018991B8
:1000F000882319F00E945300FACFDF91CF91089521
:10010000CF93DF9360E177E20E94A706EC0180E3E2
:10011000860F0E945300CE0168EE73E00E94A7068E
:10012000EC0180E3860F0E945300CE0164E670E08C
:100130000E94A706EC0180E3860F0E945300CE01C7
:100140006AE070E00E94A706C82F80E3860F0E9435
:10015000530080E38C0FDF91CF910C945300CF922A
:10016000DF92EF92FF921092C00028EB2093C10023
:100170006C01E12CF12CA8EFBFEFA70196010E94C2
:10018000EB06735D8E4C9E4FE4E0220F331F441F3D
:10019000551FEA95D1F70E94BB06BB27A52F942FC8
:1001A000832F8093C5002093C400EEE8F1E0128E07
:1001B000118E1092C301FF90EF90DF90CF900895C1
:1001C0001F920F920FB60F9211248F939F93EF936C
:1001D000FF93E091C2018091C301E81B9091C2019D
:1001E0008091C301981708F4E75EF0E0E755FE4FF1
:1001F00080818093C6008091C30181508093C301A8
:100200008091C301811105C08091C1008F7D8093D1
:10021000C100FF91EF919F918F910F900FBE0F90B2
:100220001F9018951F920F920FB60F9211248F9363
:100230009F93EF93FF938091C6009091A80199310D
:10024000A8F4E091A70191E09E0F9093A701F0E040
:10025000E257FE4F80838091A701893110F0109200
:10026000A7018091A8018F5F8093A801FF91EF9172
:100270009F918F910F900FBE0F901F90189587B18F
:100280008C6387B9569A82E08093690081E08CBBC9
:100290008DBB109285001092840083E884BD83E0BA
:1002A00085BD08951092600110925F011092850043
:1002B0001092840081E086BB80936F0092E090935F
:1002C000810080937F010895F89410926F0016BA10
:1002D0001092810010928500109284001092770194
:1002E000109278011092790110927A011092800197
:1002F0001092810110928201109283011092630189
:10030000109264011092650110926601089588E3CD
:1003100088B90C9464012F923F924F925F926F9232
:100320007F928F929F92AF92BF92CF92DF92EF9285
:10033000FF920F931F93CF93DF9310925E01109261
:100340006B0110926C0110926D0110926E0110926F
:100350006701109268011092690110926A0110926F
:100360007701109278011092790110927A0110921F
:1003700080011092810110928201109283011092EB
:10038000630110926401109265011092660184E18C
:1003900091E00E94740020E030E048EC52E460916B
:1003A0008A0170918B0180918C0190918D010E9446
:1003B0002A060E944405CB010E9480008BE591E053
:1003C0000E9474000E9493048823E1F382E00E945B
:1003D0009B040E949604282F30E0790146E0F594B2
:1003E000E7944A95E1F71E2D53E0359527955A95E8
:1003F000E1F7277020938401C82FC7708091850191
:100400008823C1F089E191E00E947400C7010E9435
:1004100080008DE191E00E9474008091840190E061
:100420000E94800081E291E00E9474008C2F90E095
:100430000E94800080918401813019F483E08093D0
:1004400084018091840128E0829FC0011124092E3B
:10045000000CAA0BBB0B8093730190937401A093C3
:100460007501B093760186E291E00E94740080915C
:100470007301909174010E9480008BE591E00E94CD
:100480007400133021F08091840181110CC00E940E
:10049000870181E00E949B0481E090E090936201DB
:1004A00080936101CEC1113011F488E203C0123093
:1004B00011F480E388B9E09084013EE1E39E70018D
:1004C0001124B701FF0C880B990B0E9475056093EE
:1004D0007B0170937C0180937D0190937E01E7BC4A
:1004E0000E945201789481E080937F01D0E0CC0F8C
:1004F000DD1FC050DF4F01E032E0232E3324339460
:1005000080E3F82E98E2E92E209163013091640196
:100510004091650150916601609173017091740181
:1005200080917501909176010E94970680907701E5
:1005300090907801A0907901B0907A01AB01BC0154
:10054000481959096A097B098091800190918101BC
:10055000A0918201B0918301480F591F6A1F7B1F30
:1005600088819981A0E0B0E0481759076A077B07A6
:100570000CF032C10E94930481112EC14B9B1BC011
:1005800048E348B9F89410926F0016BA10928100AF
:100590008CE291E00E9474004B99FECF06BB009361
:1005A0006F00209281007894113011F4E8B803C0F4
:1005B000123009F4F8B880915E01882309F4A4CFC1
:1005C00010928500109284008091800190918101A9
:1005D000A0918201B091830180936F01909370018B
:1005E000A0937101B0937201C0907301D090740117
:1005F000E0907501F0907601C81AD90AEA0AFB0A60
:100600008090770190907801A0907901B0907A0164
:100610008C0C9D1CAE1CBF1C8092770190927801BF
:10062000A0927901B0927A01C0926B01D0926C01D4
:10063000E0926D01F0926E01C701B6010E9475054E
:10064000209110013091110140911201509113013C
:100650000E942A062B013C01C501B4010E947505C8
:1006600020918A0130918B0140918C0150918D0134
:100670000E942A069B01AC01C301B2010E94D3046F
:100680004B015C018091670190916801A091690123
:10069000B0916A01A7019601281B390B4A0B5B0B2D
:1006A000CA01B9010E947505209186013091870128
:1006B00040918801509189010E942A069B01AC015A
:1006C000C501B4010E94D20420917B0130917C01CC
:1006D00040917D0150917E010E94D3046B017C0109
:1006E00020E030E04FE753E40E94250687FD05C077
:1006F00080E090E0AFE7B3E416C020E030E0A9016D
:10070000C701B6010E943F0518164CF4C0927B0148
:10071000D0927C01E0927D01F0927E010CC080E0DD
:1007200090E0A0E8BFE380937B0190937C01A093CD
:100730007D01B0937E0160917B0170917C0180917D
:100740007D0190917E010E94440567BD1092800159
:1007500010928101109282011092830180916301B5
:1007600090916401A0916501B09166010196A11D6F
:10077000B11D8093630190936401A0936501B093D0
:10078000660130927F0180916B0190916C01A09184
:100790006D01B0916E018093670190936801A09301
:1007A0006901B0936A010E94520110925E0180912A
:1007B00073019091740120916F0130917001821B3F
:1007C000930B0E94800083E391E00E9474008BE50C
:1007D00091E00E94740094CE80E491E00E94740045
:1007E00080915F01909160010E9480008DE491E012
:1007F0000E94740087B590E00E9480000E948701EB
:1008000081E00E949B04809185018823D1F085E3DB
:1008100091E00E9474008BE591E0DF91CF911F91F0
:100820000F91FF90EF90DF90CF90BF90AF909F908F
:100830008F907F906F905F904F903F902F900C948F
:100840007400DF91CF911F910F91FF90EF90DF9097
:10085000CF90BF90AF909F908F907F906F905F9060
:100860004F903F902F9008951F920F920FB60F92C6
:1008700011248F9381E080935E018F910F900FBEC2
:100880000F901F9018951F920F920FB60F92112480
:100890008F939F93AF93BF9380918001909181013B
:1008A000A0918201B09183010196A11DB11D809399
:1008B000800190938101A0938201B093830181E034
:1008C0008CBB8DBBBF91AF919F918F910F900FBE4D
:1008D0000F901F90189582E08AB90E9489040E94A7
:1008E0003F0180E096E90E94AF002FE38DE093E0A6
:1008F000215080409040E1F700C0000081E00E945C
:100900009B0484E591E00E94740078940E948B011E
:10091000FDCF80E184B980EC8CBD1092C5011092AE
:10092000C601789408958091C50108951092C5017B
:100930008091C6010895F8948093C4018EBD789487
:1009400008951F920F920FB60F9211242F933F9389
:100950004F935F936F937F938F939F93AF93BF93C7
:10096000EF93FF938EB58093C601882339F081E021
:100970008093C50182E00E949B0403C08091C40162
:100980008EBDFF91EF91BF91AF919F918F917F911C
:100990006F915F914F913F912F910F900FBE0F90EC
:1009A0001F9018955058BB27AA270E94EA040C9460
:1009B000EB050E94DD0538F00E94E40520F039F4D3
:1009C0009F3F19F426F40C94DA050EF4E095E7FB4A
:1009D0000C94D405E92F0E94FC0558F3BA1762075E
:1009E00073078407950720F079F4A6F50C941E068A
:1009F0000EF4E0950B2EBA2FA02D0B01B90190013A
:100A00000C01CA01A0011124FF27591B99F0593F7D
:100A100050F4503E68F11A16F040A22F232F342FC5
:100A20004427585FF3CF469537952795A795F04013
:100A30005395C9F77EF41F16BA0B620B730B840B28
:100A4000BAF09150A1F0FF0FBB1F661F771F881FE0
:100A5000C2F70EC0BA0F621F731F841F48F4879538
:100A600077956795B795F7959E3F08F0B0CF93952A
:100A7000880F08F09927EE0F9795879508950E94A3
:100A8000B00508F481E008950E94040688F09F579D
:100A900098F0B92F9927B751B0F0E1F0660F771FA2
:100AA000881F991F1AF0BA95C9F714C0B13091F098
:100AB0000E941E06B1E008950C941E06672F782F41
:100AC0008827B85F39F0B93FCCF38695779567955D
:100AD000B395D9F73EF490958095709561957F4FC9
:100AE0008F4F9F4F0895E89409C097FB3EF490956F
:100AF0008095709561957F4F8F4F9F4F9923A9F0F7
:100B0000F92F96E9BB279395F69587957795679585
:100B1000B795F111F8CFFAF4BB0F11F460FF1BC0C9
:100B20006F5F7F4F8F4F9F4F16C0882311F096E95C
:100B300011C0772321F09EE8872F762F05C066230A
:100B400071F096E8862F70E060E02AF09A95660FC3
:100B5000771F881FDAF7880F9695879597F908957C
:100B6000990F0008550FAA0BE0E8FEEF16161706BE
:100B7000E807F907C0F012161306E407F50798F026
:100B8000621B730B840B950B39F40A2661F0232B3F
:100B9000242B252B21F408950A2609F4A140A695BB
:100BA0008FEF811D811D089597F99F6780E870E0A0
:100BB00060E008959FEF80EC089500240A941616D3
:100BC000170618060906089500240A94121613063B
:100BD000140605060895092E0394000C11F48823C9
:100BE00052F0BB0F40F4BF2B11F460FF04C06F5FE5
:100BF0007F4F8F4F9F4F089557FD9058440F551FBB
:100C000059F05F3F71F04795880F97FB991F61F08E
:100C10009F3F79F087950895121613061406551F05
:100C2000F2CF4695F1DF08C0161617061806991F71
:100C3000F1CF86957105610508940895E894BB2766
:100C400066277727CB0197F908950E94B00508F42D
:100C50008FEF08950E943D060C94EB050E94DD0580
:100C600038F00E94E40520F0952311F00C94D4058F
:100C70000C94DA0511240C941F060E94FC0570F3F5
:100C8000959FC1F3950F50E0551F629FF001729F31
:100C9000BB27F00DB11D639FAA27F00DB11DAA1F40
:100CA000649F6627B00DA11D661F829F2227B00D8D
:100CB000A11D621F739FB00DA11D621F839FA00D18
:100CC000611D221F749F3327A00D611D231F849F68
:100CD000600D211D822F762F6A2F11249F575040BF
:100CE0009AF0F1F088234AF0EE0FFF1FBB1F661F3A
:100CF000771F881F91505040A9F79E3F510580F003
:100D00000C94D4050C941F065F3FE4F3983ED4F393
:100D1000869577956795B795F795E7959F5FC1F7A6
:100D2000FE2B880F911D9695879597F90895DB0105
:100D30008F939F930E94DD06BF91AF91A29F800D7C
:100D4000911DA39F900DB29F900D11240895AA1B91
:100D5000BB1B51E107C0AA1FBB1FA617B70710F0A6
:100D6000A61BB70B881F991F5A95A9F780959095D8
:100D7000BC01CD010895A1E21A2EAA1BBB1BFD01E7
:100D80000DC0AA1FBB1FEE1FFF1FA217B307E4076A
:100D9000F50720F0A21BB30BE40BF50B661F771FC2
:100DA000881F991F1A9469F76095709580959095A2
:100DB0009B01AC01BD01CF0108950E94F006A59FE3
:100DC000900DB49F900DA49F800D911D1124089546
:100DD000B7FF0C94DD060E94DD06821B930B08957D
:100DE000A29FB001B39FC001A39F700D811D11246C
:100DF000911DB29F700D811D1124911D0895F894CD
:020E0000FFCF22
:100E0200000054093E124006AC03FC08000000003A
:100E12000000A0400A0D733A0066623A0073703A0D
:100E2200006469733A00626573743A0073746F7098
:100E32000A0D002C002046696E6973686564210002
:100E420066696E6973682D4F7665723A004F435238
:0E0E520030413A0077616B657570210A0D0022
:00000001FF
