S01400006D6F746F722D6D65676176322E7372656370
S11300000C9434000C9412040C9451000C94510080
S11300100C9451000C9451000C9451000C94510018
S11300200C9451000C9451000C9451000C94510008
S11300300C9451000C94E2020C9451000C94510065
S11300400C9451000C946C040C9412010C94E00078
S11300500C9451000C9451000C9451000C945100D8
S11300600C9451000C94510011241FBECFEFD8E022
S1130070DEBFCDBF11E0A0E0B1E0E8E9FDE002C0E1
S113008005900D92A035B107D9F721E0A0E5B1E0C4
S113009001C01D92AF3AB207E1F70E943A040C94F2
S11300A0CA060C9400009091AB019931E0F7F894E2
S11300B0E091AA0191E09E0F9093AA01F0E0EF561F
S11300C0FE4F80838091AB018F5F8093AB01809161
S11300D0AA01893111F41092AA018091C1008062B1
S11300E08093C10078940895CF93DF93EC018991B4
S11300F0882319F00E945300FACFDF91CF9108951D
S1130100CF93DF9360E177E20E947206EC0180E313
S1130110860F0E945300CE0168EE73E00E947206BF
S1130120EC0180E3860F0E945300CE0164E670E088
S11301300E947206EC0180E3860F0E945300CE01F8
S11301406AE070E00E947206C82F80E3860F0E9466
S1130150530080E38C0FDF91CF910C945300CF9226
S1130160DF92EF92FF921092C00028EB2093C1001F
S11301706C01E12CF12CA8EFBFEFA70196010E94BE
S1130180B606735D8E4C9E4FE4E0220F331F441F6E
S1130190551FEA95D1F70E948606BB27A52F942FF9
S11301A0832F8093C5002093C400E6E7F1E0128E0C
S11301B0118E1092AB01FF90EF90DF90CF900895D5
S11301C01F920F920FB60F9211248F939F93EF9368
S11301D0FF93E091AA018091AB01E81B9091AA01E1
S11301E08091AB01981708F4E75EF0E0EF56FE4FFC
S11301F080818093C6008091AB0181508093AB01D4
S11302008091AB01811105C08091C1008F7D8093E5
S1130210C100FF91EF919F918F910F900FBE0F90AE
S11302201F9018951F920F920FB60F9211248F935F
S11302309F93EF93FF938091C60090919001993121
S1130240A8F4E0918F0191E09E0F90938F01F0E06C
S1130250EA58FE4F808380918F01893110F010920B
S11302608F01809190018F5F80939001FF91EF91B6
S11302709F918F910F900FBE0F901F90189587B18B
S11302808C6387B9569A82E08093690081E08CBBC5
S11302908DBB109285001092840083E884BD83E0B6
S11302A085BD08951092510110925001109285005D
S11302B01092840081E086BB80936F0093E090935A
S11302C08100809370010895F89410926F0016BA1B
S11302D0109281001092850010928400109268019F
S11302E01092690110926A0110926B0110927101CF
S11302F010927201109273011092740110925401C1
S1130300109255011092560110925701089588E3F6
S113031088B90C9464010F931F93CF93DF931092C9
S11303205C0110925D0110925E0110925F011092C7
S113033058011092590110925A0110925B011092C7
S113034068011092690110926A0110926B01109277
S11303507101109272011092730110927401109243
S113036054011092550110925601109257010E94A7
S11303705E048823E1F382E00E9466040E94610423
S1130380282F30E0890196E0159507959A95E1F7B5
S1130390D02F43E0359527954A95E1F727702093B0
S11303A07501C82FC77080910E018823C1F08BE1BD
S11303B091E00E947400C8010E9480008FE191E0E6
S11303C00E9474008091750190E00E94800083E295
S11303D091E00E9474008C2F90E00E948000809134
S11303E07501813019F482E08093750120917501C3
S11303F03FE3239FC0011124092E000CAA0BBB0B61
S11304008093640190936501A0936601B0936701A2
S1130410D33011F021110CC00E94870181E00E94A9
S1130420660481E090E09093530180935201C5C02B
S1130430D13011F488E203C0D23011F480E388B9DA
S1130440009175018EE1089F80011124B801110FFC
S1130450880B990B0E94400560936C0170936D01A9
S113046080936E0190936F0107BD0E9452017894AE
S113047081E080937001D0E0CC0FDD1FC050DF4FCE
S113048020915401309155014091560150915701EA
S1130490609164017091650180916601909167019A
S11304A00E946206009168011091690120916A011D
S11304B030916B01AB01BC01401B510B620B730B00
S11304C08091710190917201A0917301B0917401B6
S11304D0480F591F6A1F7B1F88819981A0E0B0E0F3
S11304E0481759076A077B0724F40E945E0488238F
S11304F0B1F00E94870181E00E94660480910E01A0
S1130500882309F45AC085E491E00E94740082E4CF
S113051091E0DF91CF911F910F910C947400809121
S11305207001882309F4ACCF80910E01882309F46B
S1130530A7CF88E291E00E947400809160019091BD
S113054061010E9480008DE291E00E94740080911C
S11305506801909169010E94800084E391E00E9407
S1130560740087B590E00E9480008BE391E00E94C4
S113057074004091540150915501209164013091CF
S11305806501429FC001439F900D529F900D11241D
S11305902091680130916901821B930B20917101B4
S11305A030917201820F931F0E94800082E491E0D7
S11305B00E9474001092700163CFDF91CF911F915C
S11305C00F9108951F920F920FB60F9211244F921C
S11305D05F926F927F928F929F92AF92BF92CF92CF
S11305E0DF92EF92FF922F933F934F935F936F931A
S11305F07F938F939F93AF93BF93EF93FF93109247
S11306008500109284008091710190917201A091F3
S11306107301B09174018093600190936101A09380
S11306206201B0936301C0906401D0906501E090D1
S11306306601F0906701C81AD90AEA0AFB0A809099
S1130640680190906901A0906A01B0906B018C0CD4
S11306509D1CAE1CBF1C8092680190926901A092FF
S11306606A01B0926B01C0925C01D0925D01E0928C
S11306705E01F0925F01C701B6010E94400520911E
S11306801701309118014091190150911A010E94EB
S1130690F5052B013C01C501B4010E9440052091E0
S11306A013013091140140911501509116010E94DB
S11306B0F5059B01AC01C301B2010E949E044B01EC
S11306C05C018091580190915901A0915A01B09117
S11306D05B01A7019601281B390B4A0B5B0BCA016E
S11306E0B9010E94400520910F0130911001409101
S11306F01101509112010E94F5059B01AC01C50145
S1130700B4010E949D0420916C0130916D014091CF
S11307106E0150916F010E949E046B017C0120E0E8
S113072030E04FE753E40E94F00587FD05C080E008
S113073090E0AFE7B3E416C020E030E0A901C701C0
S1130740B6010E940A0518164CF4C0926C01D092AE
S11307506D01E0926E01F0926F010CC080E090E0B8
S1130760A0E8BFE380936C0190936D01A0936E01A8
S1130770B0936F0160916C0170916D0180916E0175
S113078090916F010E940F0567BD10927101109244
S1130790720110927301109274018091540190912E
S11307A05501A0915601B09157010196A11DB11DAB
S11307B08093540190935501A0935601B09357012F
S11307C081E08093700180915C0190915D01A09122
S11307D05E01B0915F018093580190935901A093F9
S11307E05A01B0935B010E945201FF91EF91BF91B6
S11307F0AF919F918F917F916F915F914F913F91B5
S11308002F91FF90EF90DF90CF90BF90AF909F908B
S11308108F907F906F905F904F900F900FBE0F90CE
S11308201F9018951F920F920FB60F9211248F9359
S11308309F93AF93BF938091710190917201A091A6
S11308407301B09174010196A11DB11D80937101D2
S113085090937201A0937301B093740181E08CBBF7
S11308608DBBBF91AF919F918F910F900FBE0F9051
S11308701F90189582E08AB90E9454040E943F0197
S113088080E096E90E94AF002FE38DE093E02150D1
S113089080409040E1F700C0000081E00E946604BF
S11308A078940E948B01FDCF80E184B980EC8CBDEB
S11308B01092AD011092AE01789408958091AD012B
S11308C008951092AD018091AE010895F89480933B
S11308D0AC018EBD789408951F920F920FB60F92BB
S11308E011242F933F934F935F936F937F938F9331
S11308F09F93AF93BF93EF93FF938EB58093AE0115
S1130900882339F081E08093AD0182E00E9466047F
S113091003C08091AC018EBDFF91EF91BF91AF9167
S11309209F918F917F916F915F914F913F912F9103
S11309300F900FBE0F901F9018955058BB27AA27F1
S11309400E94B5040C94B6050E94A80538F00E94D4
S1130950AF0520F039F49F3F19F426F40C94A50553
S11309600EF4E095E7FB0C949F05E92F0E94C70560
S113097058F3BA17620773078407950720F079F4D0
S1130980A6F50C94E9050EF4E0950B2EBA2FA02DD4
S11309900B01B90190010C01CA01A0011124FF2728
S11309A0591B99F0593F50F4503E68F11A16F04023
S11309B0A22F232F342F4427585FF3CF4695379522
S11309C02795A795F0405395C9F77EF41F16BA0BE7
S11309D0620B730B840BBAF09150A1F0FF0FBB1F95
S11309E0661F771F881FC2F70EC0BA0F621F731FDE
S11309F0841F48F4879577956795B795F7959E3F3B
S1130A0008F0B0CF9395880F08F09927EE0F9795CB
S1130A10879508950E947B0508F481E008950E945B
S1130A20CF0588F09F5798F0B92F9927B751B0F0A8
S1130A30E1F0660F771F881F991F1AF0BA95C9F75E
S1130A4014C0B13091F00E94E905B1E008950C940E
S1130A50E905672F782F8827B85F39F0B93FCCF3C1
S1130A60869577956795B395D9F73EF490958095DB
S1130A70709561957F4F8F4F9F4F0895E89409C0FB
S1130A8097FB3EF490958095709561957F4F8F4FBD
S1130A909F4F9923A9F0F92F96E9BB279395F695D3
S1130AA0879577956795B795F111F8CFFAF4BB0F51
S1130AB011F460FF1BC06F5F7F4F8F4F9F4F16C0B5
S1130AC0882311F096E911C0772321F09EE8872F3F
S1130AD0762F05C0662371F096E8862F70E060E0FB
S1130AE02AF09A95660F771F881FDAF7880F969574
S1130AF0879597F90895990F0008550FAA0BE0E818
S1130B00FEEF16161706E807F907C0F012161306CB
S1130B10E407F50798F0621B730B840B950B39F40B
S1130B200A2661F0232B242B252B21F408950A2671
S1130B3009F4A140A6958FEF811D811D089597F9B1
S1130B409F6780E870E060E008959FEF80EC08956F
S1130B5000240A9416161706180609060895002498
S1130B600A9412161306140605060895092E039412
S1130B70000C11F4882352F0BB0F40F4BF2B11F486
S1130B8060FF04C06F5F7F4F8F4F9F4F089557FDE5
S1130B909058440F551F59F05F3F71F04795880FE7
S1130BA097FB991F61F09F3F79F08795089512167E
S1130BB013061406551FF2CF4695F1DF08C016162A
S1130BC017061806991FF1CF8695710561050894DB
S1130BD00895E894BB2766277727CB0197F90895F2
S1130BE00E947B0508F48FEF08950E9408060C9478
S1130BF0B6050E94A80538F00E94AF0520F09523A1
S1130C0011F00C949F050C94A50511240C94EA058D
S1130C100E94C70570F3959FC1F3950F50E0551FCF
S1130C20629FF001729FBB27F00DB11D639FAA273D
S1130C30F00DB11DAA1F649F6627B00DA11D661F8C
S1130C40829F2227B00DA11D621F739FB00DA11DAD
S1130C50621F839FA00D611D221F749F3327A00D67
S1130C60611D231F849F600D211D822F762F6A2F03
S1130C7011249F5750409AF0F1F088234AF0EE0F68
S1130C80FF1FBB1F661F771F881F91505040A9F795
S1130C909E3F510580F00C949F050C94EA055F3F3C
S1130CA0E4F3983ED4F3869577956795B795F795D1
S1130CB0E7959F5FC1F7FE2B880F911D9695879549
S1130CC097F90895DB018F939F930E94A806BF9123
S1130CD0AF91A29F800D911DA39F900DB29F900D87
S1130CE011240895AA1BBB1B51E107C0AA1FBB1FF7
S1130CF0A617B70710F0A61BB70B881F991F5A95A4
S1130D00A9F780959095BC01CD010895A1E21A2E12
S1130D10AA1BBB1BFD010DC0AA1FBB1FEE1FFF1F9B
S1130D20A217B307E407F50720F0A21BB30BE40BEB
S1130D30F50B661F771F881F991F1A9469F7609532
S1130D407095809590959B01AC01BD01CF010895EC
S1130D500E94BB06A59F900DB49F900DA49F800D8B
S1130D60911D11240895B7FF0C94A8060E94A806AB
S1130D70821B930B0895A29FB001B39FC001A39F50
S1130D80700D811D1124911DB29F700D811D1124C0
S10B0D90911D0895F894FFCFB2
S1130D980000FE0B3818BC071405B80B000001CD81
S1130DA8CCCC3D8FC2753C0AD7A33D66623A00732A
S1130DB8703A006469733A006E6F783A006B617335
S1130DC8616E3A004F435230413A00636F756E7456
S1130DD83A000A0D002046696E697368656421004B
S9030000FC
